:1000000045C0000062C0000060C000005EC000008B
:100010005CC000005AC0000058C0000056C000007C
:1000200054C0000052C0000050C000004EC000008C
:100030004CC000004AC0000049C000003CC50000A0
:1000400044C0000042C00000C8C000003EC0000024
:100050003CC000003AC0000038C0000036C00000BC
:1000600034C0000032C0000030C000002EC00000CC
:100070002CC000002AC00000BFC0000026C0000045
:1000800024C0000022C0000020C0000011241FBEB8
:10009000CFEFD0E1DEBFCDBF14E0A0E0B1E0E6E6F7
:1000A000F8E200E00BBF02C007900D92AE3CB10732
:1000B000D9F727E0AEECB4E001C01D92AA38B20730
:1000C000E1F70E949B0A0C9431149ACF1F920F9271
:1000D0000FB60F9211242F933F934F938F939F93BB
:1000E0008091DD04843609F053C020915806309188
:1000F00059068091680790916907820F931F892B99
:1001000049F18091DB049091DC0401969093DC042A
:100110008093DB048091DB049091DC0484369105AC
:10012000E1F48091580690915906892B21F01092A4
:100130005906109258068091680790916907892B9B
:1001400021F010926907109268071092DC04109257
:10015000DB0403C087B78B7F87BF1092DD048091DB
:1001600058069091590631E020E0892B09F430E0DF
:10017000832F922F2091680730916907211531054F
:1001800011F028E030E04BB3822B932B842B8BBBF8
:100190008091DD04209158063091590690E0821735
:1001A000930709F4D8988091DD0420916807309175
:1001B000690790E08217930709F4DB988091DD04CA
:1001C0008F5F8093DD049F918F914F913F912F918D
:1001D0000F900FBE0F901F9018951F920F920FB6A1
:1001E0000F9211248F938CB1809321068F910F90E1
:1001F0000FBE0F901F9018951F920F920FB60F927F
:1002000011240BB60F921F932F933F934F935F933D
:100210006F937F938F939F93AF93BF93EF93FF93CE
:10022000CF93DF9300D01F92CDB7DEB710919C0023
:100230001E3321F481E08093E10442C01F3421F495
:1002400081E08093DA043CC01B3451F48091DA04DD
:10025000813009F087C08093DF041092DA0430C047
:100260001092DA041B3221F481E08093D90476C025
:10027000193441F48091D904813011F582E08093E2
:10028000D9046CC0103541F48091D9048230C1F496
:1002900083E08093D90462C0143441F48091D9047E
:1002A000833071F484E08093D90458C01C3241F447
:1002B0008091D904843021F485E08093D9044EC024
:1002C0008091D904853091F41093DE0486E0809308
:1002D000D9048091DE0489831A82CE0101960E949E
:1002E000161190936B0780936A0738C08630C1F46B
:1002F0001A3371F08091DE0489831A831B82CE0148
:1003000001960E94161190936B0780936A0726C08E
:100310001092D9041092D80481E08093D7041EC0B3
:100320008091D7048823C1F08091D804E82FF0E0B1
:10033000EC5DF94F10838F5F8093D80420916A079A
:1003400030916B0790E08217930741F481E080932E
:10035000E0041092D70402C01092D904812F0E94A9
:10036000C70F03C01092DA04ABCF0F900F900F901D
:10037000DF91CF91FF91EF91BF91AF919F918F91BD
:100380007F916F915F914F913F912F911F910F90AE
:100390000BBE0F900FBE0F901F90189586EE94E045
:1003A00048EB55E025E0E2E4F1E0DC0101900D923C
:1003B0002A95E1F7059684179507A1F747E451E0E0
:1003C00060E082E00E940E0C2FEF89E698E1215058
:1003D00080409040E1F700C000000895CF92DF9286
:1003E000EF92FF920F931F93CF93C62F8130910509
:1003F00069F18230910509F455C0892B09F07EC05E
:100400008CE591E00E94CB0F00E417E00F2EF2E59F
:10041000EF2EF7E0FF2EF02D0F2EF4E4CF2EF7E0B5
:10042000DF2EF02DC11105C0F80180810E94C70F99
:1004300004C0F70180810E94C70F0F5F1F4FFFEFBD
:10044000EF1AFF0A0C151D0569F758C086E691E002
:100450000E94CB0F00E417E00F2EF2E5EF2EF7E03D
:10046000FF2EF02D0F2EF4E4CF2EF7E0DF2EF02D2F
:10047000C11108C0F801808190E00E94EF0F0E9436
:10048000CB0F07C0F701808190E00E94EF0F0E9420
:10049000CB0F0F5F1F4FFFEFEF1AFF0A0C151D0563
:1004A00039F72CC08EE691E00E94CB0F00E417E0F4
:1004B0000F2EF2E5EF2EF7E0FF2EF02D0F2EF4E4D5
:1004C000CF2EF7E0DF2EF02DC11107C0F80180819B
:1004D0000E941E100E94CB0F06C0F70180810E946F
:1004E0001E100E94CB0F80E20E94C70F0F5F1F4FAC
:1004F000FFEFEF1AFF0A0C151D0531F7CF911F9181
:100500000F91FF90EF90DF90CF900895CF9380915F
:10051000D504811109C040E060E477E082E50E94E3
:10052000B30E8093D4041DC08091D304882339F086
:1005300040E060E477E082E50E94B30E0CC040E04A
:1005400060E477E082E50E94B30E8093D4048330A8
:1005500011F41092D5049091D30481E089278093FF
:10056000D304C091D404C13029F088E580930301FD
:10057000C0E02CC080910301883529F58FE4809379
:10058000030181E08093D5048093D30460E080E48C
:1005900097E00E94E80E8093D4048130B1F486E79E
:1005A00091E00E94CB0F60E080E090E017DF60E018
:1005B00081E090E013DF60E082E090E00FDF8AE00E
:1005C0000E94C70F03C0C0E001C0CFEF8C2FCF91B6
:1005D0000895CF938091D204811109C041E062E572
:1005E00077E082E50E94B30E8093D1041DC0809114
:1005F000D004882339F041E062E577E082E50E948B
:10060000B30E0CC041E062E577E082E50E94B30ED4
:100610008093D104833011F41092D2049091D004CD
:1006200081E089278093D004C091D104C13029F0A2
:1006300088E580930201C0E02CC0809102018835DA
:1006400029F58FE48093020181E08093D2048093A6
:10065000D00461E082E597E00E94E80E8093D10427
:100660008130B1F489E891E00E94CB0F61E080E035
:1006700090E0B4DE61E081E090E0B0DE61E082E035
:1006800090E0ACDE8AE00E94C70F03C0C0E001C06A
:10069000CFEF8C2FCF910895CF93DF93EC01609132
:1006A0006C0770916D0780916E0790916F0724E63B
:1006B00030E040E050E00E94F410672B682B692B7B
:1006C00089F4988181E089278883811106C01EDF23
:1006D000809350071092440705C07BDF809350073A
:1006E00010925607DF91CF910895EBE8F0E08081FA
:1006F0008F7B80831092B80510926707109266076F
:100700000895009741F0EBE8F0E020812064208319
:100710000C94950F0895EBE8F0E080818F7B808347
:1007200008958091B805823009F476C028F48823B2
:1007300061F0813061F00895843009F437C108F424
:10074000D0C0853009F475C10895CFCF0895809148
:10075000700790917107A0917207B0917307883C60
:100760009105A105B10520F48BE996E0CACF089563
:100770008091700790917107A0917207B0917307F3
:10078000883C9105A105B10521F487EE95E0B9CF2C
:1007900008958091700790917107A0917207B091B0
:1007A000730780399140A105B10521F485E694E0F5
:1007B000A8CF08958091700790917107A09172075A
:1007C000B091730788359240A105B10521F48DEFF2
:1007D00093E097CF08958091700790917107A09151
:1007E0007207B091730780329340A105B10521F4DF
:1007F00088EF92E086CF08958091700790917107FD
:10080000A0917207B0917307803B9440A105B10598
:1008100009F050C16ACF08958091700790917107D7
:10082000A0917207B0917307883C9105A105B105AD
:1008300020F48BE996E065CF089580917007909140
:100840007107A0917207B0917307823D9105A105D0
:10085000B10521F480E090E054CF089580917007B5
:1008600090917107A0917207B09173078C3D91052B
:10087000A105B10521F487EE95E043CF089580915D
:10088000700790917107A0917207B091730780393A
:100890009140A105B10521F480E090E032CF0895A8
:1008A0008091700790917107A0917207B0917307C2
:1008B0008E3A9140A105B10521F485E694E021CF5F
:1008C00008958091700790917107A0917207B0917F
:1008D000730788359240A105B10509F0EBC005CF3B
:1008E00008958091700790917107A0917207B0915F
:1008F00073078B349105A105B10520F482E194E0E2
:1009000000CF08958091700790917107A0917207B0
:10091000B091730786399105A105B10520F480E0F7
:1009200090E0EFCE08958091700790917107A091AB
:100930007207B0917307813E9105A105B10520F4BE
:1009400082E194E0DECE0895809170079091710766
:10095000A0917207B09173078C329140A105B10547
:1009600020F480E090E0CDCE0895809170079091C2
:100970007107A0917207B091730787379140A10565
:10098000B10520F482E194E0BCCE08958091700717
:1009900090917107A0917207B0917307823C9140CA
:1009A000A105B10509F086C0A0CE08958091700719
:1009B00090917107A0917207B091730784369105E9
:1009C000A105B10520F482E194E09BCE08958091C9
:1009D000700790917107A0917207B0917307883CDE
:1009E0009105A105B10520F480E090E08ACE08953C
:1009F0008091700790917107A0917207B091730771
:100A00008C329140A105B10520F482E194E079CEC9
:100A100008958091700790917107A0917207B0912D
:100A20007307823C9140A105B10509F043C05DCE3A
:100A300008958091700790917107A0917207B0910D
:100A4000730784369105A105B10520F487E490E190
:100A500058CE08958091700790917107A091720708
:100A6000B0917307883C9105A105B10520F480E0A1
:100A700090E047CE08958091700790917107A09102
:100A80007207B09173078C329140A105B10520F433
:100A900084E298E036CE08958091700790917107B6
:100AA000A0917207B0917307823C9140A105B105F6
:100AB00009F41BCE08951F920F920FB60F921124C6
:100AC0000BB60F922F933F934F935F936F937F9348
:100AD0008F939F93AF93BF93EF93FF93ECE6F7E071
:100AE00080819181A281B3810196A11DB11D808376
:100AF0009183A283B3838091220690912306892B50
:100B000059F080859185A285B3850196A11DB11DFF
:100B100080879187A287B387809188079091890702
:100B2000892B69F0ECE6F7E084859585A685B78585
:100B30000196A11DB11D84879587A687B7878091EF
:100B4000640790916507892B69F0ECE6F7E08089EE
:100B50009189A289B3890196A11DB11D808B918BCA
:100B6000A28BB38B8091620790916307892B69F008
:100B7000ECE6F7E084899589A689B7890196A11DDD
:100B8000B11D848B958BA68BB78B8091B905909105
:100B9000BA05892B69F0ECE6F7E0808D918DA28D86
:100BA000B38D0196A11DB11D808F918FA28FB38F40
:100BB0008091660790916707892B71F0ECE6F7E06A
:100BC00084819581A681B7810196A11DB11D848381
:100BD0009583A683B783A5DDFF91EF91BF91AF9178
:100BE0009F918F917F916F915F914F913F912F9145
:100BF0000F900BBE0F900FBE0F901F901895109284
:100C0000840710928507109286071092870710922A
:100C10000101109200010895CF93DF93CDB7DEB7A5
:100C200065970FB6F894DEBF0FBECDBFBC019AE04A
:100C3000E5E0F1E0DE01119601900D929A95E1F761
:100C4000FE013B968BE0DF011D928A95E9F7CE010C
:100C500001960E943311F1D54CE951E060E081E04A
:100C6000DDD549EA51E060E082E0D8D5AE014F5FC2
:100C70005F4F60E083E0D2D565960FB6F894DEBF93
:100C80000FBECDBFDF91CF91089540918407509161
:100C9000850760918607709187074131574261054A
:100CA000710538F021E030E030930101209300011C
:100CB000B3DF80910001909101010097F1F7089551
:100CC000CF92DF92EF92FF920F931F93CF93DF9318
:100CD0007C016B01EA01890192DF8CEB91E00E94BB
:100CE000E10F2FEF81E19AE7215080409040E1F73A
:100CF00000C0000085EC91E0C8DF4CEC51E060E002
:100D000082E08CD57CDF81EE91E00E94E10F809142
:100D1000DF04811107C08AEE91E0B7DF8091DF0424
:100D20008823C9F31092DF046ADF81EF91E00E940B
:100D3000E10F2FEF87EA91E6215080409040E1F7E4
:100D400000C000001092DF048FEF91E09EDF49E0C9
:100D500052E060E082E062D552DF8EE192E00E94D4
:100D6000E10F8091DF04811107C08BE292E08DDFFB
:100D70008091DF048823C9F31092DF0440DF86E30B
:100D800092E00E94E10F8091DF04811107C081E4AD
:100D900092E07BDF8091DF048823C9F31092DF04A7
:100DA0004AE452E060E082E039D529DFA601B701CC
:100DB0008FE592E00E944D100E94E10F8091DF04C8
:100DC000811107C08AE692E060DF8091DF0488230A
:100DD000C9F31092DF0443E752E060E082E01ED5E1
:100DE0000EDF88E892E00E94E10F8091DF0481111C
:100DF00007C083E992E049DF8091DF048823C9F3CB
:100E00001092DF044CE952E060E082E007D5F7DEA3
:100E1000B801CE010E94A3100E94E10F8091DF046F
:100E2000811107C081EB92E030DF8091DF048823DD
:100E3000C9F31092DF044DEB52E060E082E0EED4A3
:100E40002FEF81EE94E0215080409040E1F700C008
:100E5000000042ED52E060E082E0E0D4DF91CF910B
:100E60001F910F91FF90EF90DF90CF900895AC9A73
:100E70000895AC9808959C0197B7946097BF10921D
:100E8000DC041092DB042115310539F46D5F7F4FCE
:100E9000709359066093580608952130310531F456
:100EA0006D5F7F4F70936907609368070895843082
:100EB000910559F134F48130910549F00297B1F070
:100EC00008958530910581F10697E9F10895109212
:100ED000700710927107109272071092730781E0E9
:100EE00090E09093670780936607089510927407C7
:100EF00010927507109276071092770781E090E0C4
:100F00009093230680932206089510927C071092F6
:100F10007D0710927E0710927F0781E090E090930A
:100F200065078093640708951092800710928107E7
:100F3000109282071092830781E090E090936307FC
:100F4000809362070895109284071092850710928B
:100F500086071092870781E090E09093BA0580930E
:100F6000B9050895823099F028F4882349F081303A
:100F700051F01CC0843099F070F08530A1F016C09B
:100F80001092B80513C081E08093B8050FC082E0CD
:100F90008093B8050BC083E08093B80507C084E058
:100FA0008093B80503C085E08093B80581E090E0A8
:100FB0007ECF089510926C0710926D0710926E0705
:100FC00010926F078430910571F01092780710929B
:100FD000790710927A0710927B0721E030E0309376
:100FE00089072093880763CF0895AF92BF92CF926D
:100FF000DF92EF92FF920F931F93CF93DF93CDB7C2
:10100000DEB76C970FB6F894DEBF0FBECDBF9C0164
:1010100090915007913009F0BAC1F9018081811196
:1010200059C187EE92E0CDD78091E1048823E1F3A6
:101030001092E10482E3E4E2F6E0DF011D928A957A
:10104000E9F700E417E00F2EF4E4EF2EF7E0FF2EAF
:10105000F02DF80181918F01F1D7B3D780E2A9D7A4
:101060000E151F05B1F78EED93E0ABD78091E0042C
:101070008823E1F31092E004809124068F3409F074
:10108000DDC080E290E290932506809324061092C2
:10109000E3041092E20406EE14E0E12CF12CCC24DF
:1010A000C394D12C62E471E0C8010E943E11892BE7
:1010B00049F4F092E504E092E404D092E304C09293
:1010C000E2040CC060E477E0C8010E943E11892B65
:1010D00029F41092E3041092E20491C0FFEFEF1A9A
:1010E000FF0A0B5F1F4F8AE2E816F104D9F68091E0
:1010F000E2049091E304892B09F481C08091E40417
:101100009091E5049C01220F331F220F331F820FA1
:10111000931F60E477E08A519B4F0E9447118091B2
:10112000CE049091CF048A3291052CF401969093CD
:10113000CF048093CE048AE290E051D7BC01CE0167
:1011400049960E9447112091CE043091CF048AE243
:1011500090E0821B930B43D7BC01CE0145960E94C1
:1011600047118EE0EAE1F1E08E010F5F1F4FD801D9
:1011700001900D928A95E1F7FE013F9686E0DF012E
:101180001D928A95E9F7BE016B5E7F4FC8010E94F0
:101190003311F80101900020E9F731978FE290E0D8
:1011A00091838083BE01675E7F4FC8010E94331127
:1011B000F80101900020E9F731978DE590E09183E7
:1011C000808367E070E080E090E055DE85E090E0AD
:1011D000F1DE4DDE82E090E0EDDE2FD347EF52E00E
:1011E00060E080E01BD344E256E060E081E016D38B
:1011F000A80160E082E012D382E0B4DE34C067E090
:1012000070E080E090E037DE85E090E0D3DE82E0C1
:1012100090E0D0DE2CDE11D347EF52E060E080E0BA
:10122000FDD244E256E062E081E0F8D240E053E0D3
:1012300060E082E0F3D282E095DE15C083E090E0CA
:10124000B9DE83E08FDEF9D243E153E060E080E075
:10125000E5D24AE153E062E081E0E0D247E253E0C8
:1012600062E082E0DBD28AE092D687E393E093D615
:1012700084E296E090D68AE08AD60F2EF7EECF2E43
:10128000F4E0DF2EF02D0F2EF9EBAF2EF5E0BF2EA0
:10129000F02D8BE57CD6F60131978081CFD67BD6B9
:1012A000760100E010E080E272D60F5F1F4FF70179
:1012B00081917F01C3D66FD603301105A1F78DE56B
:1012C00066D68AE064D6F5E0CF0ED11CAC14BD041E
:1012D00001F75DC0813009F05AC006EE14E00F2E10
:1012E000F8EBEF2EF5E0FF2EF02D62E577E0C80178
:1012F000C5D7892BD9F485E0E2E4F1E0D80101906B
:101300000D928A95E1F78091CE049091CF040197D8
:101310009093CF048093CE0467E070E081E090E08A
:10132000AADD84E090E046DE82E01CDE0B5F1F4F0A
:101330000E151F05D1F60F2EF7EECF2EF4E0DF2E9F
:10134000F02D0F2EF9EBAF2EF5E0BF2EF02D8BE533
:101350001ED6F6013197808171D61DD6760100E048
:1013600010E080E214D60F5F1F4FD7018D917D01F1
:1013700065D611D603301105A1F78DE508D68AE0B0
:1013800006D6B5E0CB0ED11CCA14DB0401F71092CF
:1013900050076C960FB6F894DEBF0FBECDBFDF913D
:1013A000CF911F910F91FF90EF90DF90CF90BF9062
:1013B000AF9008950F931F93CF93DF93CDB7DEB710
:1013C00064970FB6F894DEBF0FBECDBF789489E066
:1013D0008ABBA49AF89482D58AD597D586E090E006
:1013E00066DD789410926C0710926D0710926E076C
:1013F00010926F073EDD60E875E280E090E09AD5DC
:1014000060E875E281E090E095D580E0FAD381E074
:10141000F8D379D146E453E060E080E0FFD14BE5BA
:1014200053E060E081E0FAD14FE653E060E082E013
:10143000F5D146E453E060E083E0F0D181E092DD55
:101440002FEF81E19AE7215080409040E1F700C002
:10145000000080E01ED480E072D481E01AD481E0E4
:101460006ED424E833E049E853E067E973E080EAAA
:1014700093E026DC0E94CE018FE0EEE2F1E08E01E7
:101480000F5F1F4FD80101900D928A95E1F7FE0181
:10149000709685E0DF011D928A95E9F7D8010D90DD
:1014A0000020E9F7119786E0E6EAF3E001900D925B
:1014B0008A95E1F746E453E060E080E0AFD14CEA82
:1014C00053E060E081E0AAD1A80160E082E0A6D10B
:1014D00046E453E060E083E0A1D185E043DD62E0D3
:1014E00070E081E090E0C7DC62E070E080E090E0D6
:1014F000C2DCBFEF27EA81E6B15020408040E1F72F
:1015000000C0000010925906109258061092690708
:101510001092680792D192D01092BA051092B90534
:1015200064960FB6F894DEBF0FBECDBFDF91CF91AA
:101530001F910F9108953EDF62E070E080E090E03F
:101540009ADC62E070E081E090E095DCD79ACCE62E
:10155000D7E086ED94E0A0D886ED94E046DD80915A
:10156000220690912306892B91F088859985AA857A
:10157000BB8581339547A105B10548F07ADC10920F
:1015800023061092220610922306109222068091C2
:10159000880790918907892B91F08C859D85AE8570
:1015A000BF85803E9E42A105B10549F447D0109207
:1015B00089071092880710928907109288078091F6
:1015C000620790916307892BC1F08C899D89AE8950
:1015D000BF8980319742A105B10579F485E0C2DC6D
:1015E00062E070E080E090E046DC109263071092C9
:1015F00062071092630710926207809164079091CE
:101600006507892B09F4A5CF88899989AA89BB899F
:1016100080319742A105B10509F09BCF85E0A2DC9E
:1016200062E070E081E090E026DC109265071092A5
:10163000640710926507109264078BCFCF93DF93F6
:1016400000D000D0CDB7DEB784E089831A8284E170
:101650008B8380E18C8344E050E0BE016F5F7F4F5D
:10166000809104014AD18111F6CF8FE39CE9019763
:10167000F1F700C000000F900F900F900F90DF91D6
:10168000CF910895CF93DF9300D0CDB7DEB7807FA1
:10169000982F9C60998388608A8342E050E0BE0165
:1016A0006F5F7F4F8091040128D18111F6CF0F9099
:1016B0000F90DF91CF910895CF93DF9300D000D0AA
:1016C000CDB7DEB7982F907F292F2C6029839860A3
:1016D0009A8320E1829FC0011124982F9C609B83F4
:1016E00088608C8344E050E0BE016F5F7F4F809143
:1016F000040103D18111F6CF0F900F900F900F903E
:10170000DF91CF910895BED02FEF89E698E1215067
:1017100080409040E1F700C0000081EC93E03BD4B2
:1017200080E3B0DF8FE19EE40197F1F700C0000095
:1017300080E3A8DF8FE891E00197F1F700C0000097
:1017400080E3A0DF8FE891E00197F1F700C000008F
:1017500080E298DF8FE891E00197F1F700C0000088
:1017600088E2AADF87EC90E00197F1F700C0000063
:1017700088E0A2DF87EC90E00197F1F700C000005D
:1017800081E09ADF8FED9EE20197F1F700C0000043
:1017900086E092DF87EC90E00197F1F700C000004F
:1017A0008CE08ADF87EC90E00197F1F700C0000041
:1017B00081EE93E0F0C30895CF93DF9300D000D083
:1017C000CDB7DEB7982F907F292F2D6029839960A0
:1017D0009A8320E1829FC0011124982F9D609B83F2
:1017E00089608C8344E050E0BE016F5F7F4F809141
:1017F000040183D08111F6CF0F900F900F900F90BE
:10180000DF91CF910895E82FF0E0EE0FFF1FE95030
:10181000FC4F8081860F80684FCF0895CF93DF9370
:10182000EA01F1DF8881882329F02196C5DF8991BB
:101830008111FCCFDF91CF910895CF93DF9300D03A
:1018400000D0CDB7DEB78CE0898388E08A838CE155
:101850008B8388E18C8344E050E0BE016F5F7F4F53
:10186000809104014AD08111F6CF8FE39CE9019762
:10187000F1F700C000000F900F900F900F90DF91D4
:10188000CF91089588E4809370000895E4E7F0E034
:10189000108294EA908390819923ECF790917100E3
:1018A000987F9830A1F48093730084E8809374004B
:1018B000E4E7F0E080818823ECF790917100987F55
:1018C000983139F081E0903429F480E0089581E086
:1018D000089580E008958093730084E880937400F5
:1018E000E4E7F0E080818823ECF790917100987F25
:1018F00081E0983209F480E00895CF92DF92FF9260
:101900000F931F93CF93DF936B018A01BFDFF82EF4
:10191000811117C00115110581F0E6010C0D1D1D87
:101920008991D9DF811110C08FE99FE00197F1F70C
:1019300000C000000C171D0799F784E9809374001C
:1019400005C0FF24F39402C0FF24F3948F2DDF9190
:10195000CF911F910F91FF90DF90CF9008951F932B
:10196000CF93DF93162F95B3C1E0D0E002C0CC0F28
:10197000DD1F4A95E2F72C2F2095922395BB880F07
:101980008E77A3D2812FA1D285B3C82BC5BBDF919F
:10199000CF911F910895CF93DF9395B3C1E0D0E02D
:1019A00002C0CC0FDD1F6A95E2F72C2F2095922301
:1019B00095BB880F8E77806888D28BD295B3C92B60
:1019C000C5BBDF91CF9108952F923F924F925F92C6
:1019D0006F927F928F929F92AF92BF92CF92DF923F
:1019E000EF92FF920F931F93CF93DF93F82EA62EC3
:1019F000B72E442E222ED32E8CE0F81659F0EEE0AE
:101A0000FE1211C06894CC24C4F80F2EF2E13F2ED0
:101A1000F02D0BC00F2EF0E3CF2EF02D0F2EF7E799
:101A20003F2EF02D02C0C12C312C4E2D632D60684D
:101A300082E095DF6E2D84E0AEDF682F6F774E2D4C
:101A400084E08DDF6E2D8AE0A6DF682F60684E2D62
:101A50008AE085DF4E2D60E081E081DF512C612C32
:101A6000712C411451046104710499F0CA2DDB2DCD
:101A7000812C912C540169914E2D89E070DFFFEF8C
:101A80008F1A9F0AAF0ABF0A84149504A604B704EC
:101A900090F34E2D6F2D81E062DF8CE0F81208C0CC
:101AA0006E2D8DE078DF682F60684E2D8DE057DF5A
:101AB0006E2D84E070DFB82EC0E0D0E0EC2DE16048
:101AC000CE2E0AC06E2D84E066DFB82E2196CF3C64
:101AD000F7E0DF0709F468C08C2D8B2199F36EC005
:101AE000832D8170B82211F0C2E001C0C1E08CE00A
:101AF000F81273C06E2D8AE04EDF882E6E2D8CE0BA
:101B00004ADF282F2770A9F0882D90E00197880FD1
:101B1000991F880F991F880F991F820F911D092EF9
:101B2000000CAA0BBB0BF80180839183A283B383C3
:101B300011C0882D90E0880F991F880F991F880F7A
:101B4000991F092E000CAA0BBB0BF801808391830F
:101B5000A283B383882071F0882D813108F080E161
:101B6000882E912CA12CB12C81149104A104B104D4
:101B700029F433C0812C912C54018394022D1D2D06
:101B8000412C512C32016E2D89E005DFF801819343
:101B90008F01FFEF4F1A5F0A6F0A7F0A481459043A
:101BA0006A047B0480F319C06E2D8DE0F4DE682F8B
:101BB0006F774E2D8DE0D3DEC3E00FC06E2D8DE02C
:101BC000EADE682F6F774E2D8DE0C9DE6E2D86E040
:101BD000E2DE8B7109F484CFC3E08C2FDF91CF91CB
:101BE0001F910F91FF90EF90DF90CF90BF90AF903B
:101BF0009F908F907F906F905F904F903F902F902D
:101C00000895CF93C82F1F921F921F9281E08F9348
:101C100083E08F9317D184B3836084BB15BA2FEF11
:101C200089EF90E0215080409040E1F700C0000033
:101C300085B3836085BB4C2F6FE081E090DE4C2F35
:101C40006DE88AE28CDE4C2F6EE38BE288DE4C2F4F
:101C50006EE18CE284DE4C2F60E08DE280DE4C2F62
:101C600060E485E17CDE4C2F6DE381E178DE6C2F52
:101C700084E191DE982F93700F900F900F900F904A
:101C80000F9029F4682F63604C2F84E168DECF91B8
:101C90000895CF93DF93D82F682F87E37CDEC82F7A
:101CA0002FEF89EF90E0215080409040E1F700C095
:101CB0000000D11106C08FEF93E06DD1C23959F504
:101CC0000FC08BE094E067D1C23991F512C087E173
:101CD00094E061D14AE254E060E082E09FDDFFCF12
:101CE0008EE394E058D142E654E060E082E096DD75
:101CF00023C08EE394E04FD147E754E060E082E0F8
:101D00008DDD1AC08CE894E046D142E654E060E0F4
:101D100082E084DD11C0C059C230C8F6F3CF8CE830
:101D200094E039D147E754E060E082E077DD04C019
:101D3000C059C23060F6F3CFDF91CF910895CF93B1
:101D4000C82F682F82E027DE682F60624C2F82E068
:101D500006DE6C2F83E01FDE682F60684C2F83E067
:101D6000FEDDCF910895CF92DF92EF920F931F93F4
:101D7000CF93DF9300D000D0CDB7DEB7182F6B0123
:101D8000E42E67E08DE0EBDDF60110838E010F5F3E
:101D90001F4F960141E0B6018CE016DE813059F408
:101DA00049815A816B817C81403151056105710502
:101DB00019F083E001C083E00F900F900F900F9017
:101DC000DF91CF911F910F91EF90DF90CF90089509
:101DD000CF92DF92EF920F931F93CF93DF9300D0B8
:101DE00000D0CDB7DEB76C01E62E462F60E08DE067
:101DF000B6DD83E9F601808380E281838E010F5F87
:101E00001F4F960142E0B6018CE0DEDD813071F4B7
:101E1000F601A6014C5F5F4F90E0219192274E178B
:101E20005F07D9F7F6012481921383E00F900F909A
:101E30000F900F90DF91CF911F910F91EF90DF9056
:101E4000CF900895CF93DF9300D01F92CDB7DEB728
:101E50008885833021F1811132C029C09C9112966E
:101E60009193E217F307D1F79B81923020F11B8207
:101E70001DB8833071F4C09A87B3876087BB99819E
:101E80008A81892B80652EB19B81922B9EB98DB959
:101E900016C0811114C0BB9A80E48DB910C0DE0158
:101EA0001996FE0131969E012C5F3F4FD7CF9B8143
:101EB0009230E8F602C01DB8DECF1DB8ECCF0F900F
:101EC0000F900F90DF91CF9108958FB9779BFECF40
:101ED00008951FB8779BFECF8FB10895BC9A8CE010
:101EE00083BF8AEF81BF87B7826087BF089582E092
:101EF0008FBD8AE18EBD1DBC1CBC81E087BD8FE813
:101F000086BD87B7846087BF0895139A80E4809365
:101F10008B008AE180938A001092890010928800D9
:101F20001092810010928000089590938100809318
:101F300080000895CF93DF93EC019B0140E050E0D7
:101F400060E472E48FE090E04FD121503109209796
:101F500059F410983093900029B988E18AB9579ABA
:101F600086E08093950010C0219771F4309398001B
:101F700020939900EAE9F0E088E18083808180681D
:101F8000808386E080939D00DF91CF9108955D9BD3
:101F9000FECF8CB90895CF93DF93EC01888188231D
:101FA00029F02196F4DF89918111FCCFDF91CF9147
:101FB0000895EBE9F0E0908195FFFDCF80939C00C0
:101FC0000895CF93DF93EC018881882329F021962F
:101FD000F0DF89918111FCCFDF91CF9108950F93AC
:101FE0001F93CF93DF93CDB7DEB764970FB6F89406
:101FF000DEBF0FBECDBF9F938F9380EB94E09F9386
:102000008F938E010F5F1F4F1F930F934FD1B80116
:1020100080EC96E03CD10F900F900F900F900F90B6
:102020000F9080EC96E064960FB6F894DEBF0FBE7A
:10203000CDBFDF91CF911F910F9108950F931F9303
:10204000CF93DF93CDB7DEB764970FB6F894DEBFBA
:102050000FBECDBF1F928F9385EB94E09F938F931C
:102060008E010F5F1F4F1F930F9320D1B80180EC9B
:1020700096E00DD10F900F900F900F900F900F9052
:1020800080EC96E064960FB6F894DEBF0FBECDBF2D
:10209000DF91CF911F910F910895CF92DF92EF9230
:1020A000FF920F931F93CF93DF93CDB7DEB7C0544A
:1020B000D1090FB6F894DEBF0FBECDBF6B017A0118
:1020C00020E4E0E0F7E0DF011D922A95E9F7BC018A
:1020D0008E010F5F1F4FC801DAD0B601C801C3D00F
:1020E000F80101900020E9F7319782E29CE29183A8
:1020F000808382E290E093838283B701C801B3D0EA
:10210000F80101900020E9F7319782E29DE0918388
:1021100080838AE090E093838283B80180E097E037
:10212000B6D080E097E0C05CDF4F0FB6F894DEBF1A
:102130000FBECDBFDF91CF911F910F91FF90EF9018
:10214000DF90CF900895EF92FF920F931F93CF935C
:10215000DF93CDB7DEB7C054D1090FB6F894DEBF18
:102160000FBECDBF9C017B0180E4E0E0F7E0DF0122
:102170001D928A95E9F794E1EAEBF4E08E010F5F96
:102180001F4FD80101900D929A95E1F7B901C8014E
:102190006AD0F80101900020E9F7319782E29CE2D1
:1021A000918380831282B701C8015DD0F80101904C
:1021B0000020E9F731978DE09AE0918380831282C5
:1021C000B80180E097E063D080E097E0C05CDF4F2B
:1021D0000FB6F894DEBF0FBECDBFDF91CF911F9138
:1021E0000F91FF90EF900895A1E21A2EAA1BBB1B3E
:1021F000FD010DC0AA1FBB1FEE1FFF1FA217B307D3
:10220000E407F50720F0A21BB30BE40BF50B661FE8
:10221000771F881F991F1A9469F7609570958095AC
:1022200090959B01AC01BD01CF010895FC01882769
:102230009927E89421912032E9F3293010F02E30CB
:10224000C8F32B3239F02D3231F4689403C026D014
:10225000820F911D219120532A30C8F31EF49095CE
:1022600081959F4F0895FB01DC010D900020E9F757
:10227000119701900D920020E1F70895FB01DC0118
:102280008D91019080190110D9F3990B0895FB01EC
:10229000DC0101900D920020E1F708957AE0979F0C
:1022A000902D879F802D910D112408950F931F93DA
:1022B000CF93DF93CDB7DEB72E970FB6F894DEBF7E
:1022C0000FBECDBF0D891E8986E08C831A830983DA
:1022D0008FEF9FE79E838D83AE01475E5F4F6F89CF
:1022E000788DCE01019610D0EF81F885E00FF11FB7
:1022F00010822E960FB6F894DEBF0FBECDBFDF91D1
:10230000CF911F910F9108952F923F924F925F921C
:102310006F927F928F929F92AF92BF92CF92DF92F5
:10232000EF92FF920F931F93CF93DF93CDB7DEB75A
:102330002B970FB6F894DEBF0FBECDBF6C017B01AB
:102340008A01FC0117821682838181FFBFC1CE0101
:1023500001963C01F6019381F70193FD859193FF6E
:1023600081917F01882309F4ADC1853239F493FD51
:10237000859193FF81917F01853221F4B60190E030
:10238000D6D1E8CF912C212C312CFFE1F315D8F0D8
:102390008B3279F038F4803279F08332A1F4232D36
:1023A00020611DC08D3261F0803369F4232D2160DE
:1023B00016C0832D8260382EE32DE4603E2E2AC0A5
:1023C000F32DF8601DC037FC2DC020ED280F2A30FA
:1023D00040F08E32B9F436FC75C1232D2064322EC4
:1023E00019C036FE06C08AE0989E200D1124922E58
:1023F00011C0EAE02E9E200D1124222EF32DF06252
:102400003F2E08C08C3621F4832D8068382E02C000
:10241000883641F4F70193FD859193FF81917F0107
:102420008111B3CF982F9F7D9554933028F40C5F82
:102430001F4F9FE399830DC0833631F0833771F0CE
:10244000833509F055C020C0F801808189830E5F73
:102450001F4F88248394912C530112C02801F2E06D
:102460004F0E511CF801A080B18036FE03C0692DCB
:1024700070E002C06FEF7FEFC5014ED14C018201C9
:10248000F32DFF773F2E15C0280122E0420E511C8C
:10249000F801A080B18036FE03C0692D70E002C053
:1024A0006FEF7FEFC5012DD14C01F32DF0683F2E6A
:1024B000820133FC19C0822D90E088169906A0F4A1
:1024C000B60180E290E033D12A94F5CFF50137FCD4
:1024D000859137FE81915F01B60190E028D12110EE
:1024E0002A9421E0821A91088114910479F7E1C0BD
:1024F000843611F0893639F5F80137FE07C060815E
:102500007181828193810C5F1F4F08C0608171814E
:10251000072E000C880B990B0E5F1F4FF32DFF76D3
:102520003F2E97FF09C090958095709561957F4FDC
:102530008F4F9F4FF0683F2E2AE030E0A30133D148
:10254000882E861844C0853731F4232D2F7EB22E75
:102550002AE030E025C0932D997FB92E8F36C1F047
:1025600018F4883579F0AEC0803719F0883721F03B
:10257000A9C0E92FE061BE2EB4FE0DC0FB2DF460B2
:10258000BF2E09C034FE0AC0292F2660B22E06C015
:1025900028E030E005C020E130E002C020E132E078
:1025A000F801B7FE07C060817181828193810C5F61
:1025B0001F4F06C06081718180E090E00E5F1F4F69
:1025C000A301F1D0882E8618FB2DFF773F2E36FE13
:1025D0000DC0232D2E7FA22E891458F434FE0BC07B
:1025E00032FC09C0832D8E7EA82E05C0B82CA32CEA
:1025F00003C0B82C01C0B92CA4FE0FC0FE01E80D29
:10260000F11D8081803321F49A2D997EA92E09C075
:10261000A2FE06C0B394B39404C08A2D867809F054
:10262000B394A3FC10C0A0FE06C0B21480F4280C22
:10263000922C9B180DC0B21458F4B60180E290E0C1
:1026400076D0B394F8CFB21418F42B1802C0982C9B
:10265000212CA4FE0FC0B60180E390E068D0A2FE5A
:1026600016C0A1FC03C088E790E002C088E590E0B6
:10267000B6010CC08A2D867851F0A1FE02C08BE213
:1026800001C080E2A7FC8DE2B60190E050D0891431
:1026900030F4B60180E390E04AD09A94F8CF8A945F
:1026A000F301E80DF11D8081B60190E040D081106A
:1026B000F6CF222009F44ECEB60180E290E037D06A
:1026C0002A94F7CFF6018681978102C08FEF9FEFA2
:1026D0002B960FB6F894DEBF0FBECDBFDF91CF9122
:1026E0001F910F91FF90EF90DF90CF90BF90AF9030
:1026F0009F908F907F906F905F904F903F902F9022
:102700000895FC010590615070400110D8F7809544
:1027100090958E0F9F1F0895FC01615070400190AD
:102720000110D8F7809590958E0F9F1F08950F93F5
:102730001F93CF93DF93FB01238121FD03C08FEF14
:102740009FEF2CC022FF16C046815781248135811E
:102750004217530744F4A081B1819D012F5F3F4F81
:10276000318320838C93268137812F5F3F4F3783BE
:10277000268314C08B01EC01FB010084F185E02D60
:102780000995892BE1F6D80116968D919C911797A2
:10279000019617969C938E931697CE01DF91CF9159
:1027A0001F910F910895FA01AA27283051F1203185
:1027B00081F1E8946F936E7F6E5F7F4F8F4F9F4FD5
:1027C000AF4FB1E03ED0B4E03CD0670F781F891F17
:1027D0009A1FA11D680F791F8A1F911DA11D6A0FE5
:1027E000711D811D911DA11D20D009F468943F9198
:1027F0002AE0269F11243019305D3193DEF6CF0197
:102800000895462F4770405D4193B3E00FD0C9F75C
:10281000F6CF462F4F70405D4A3318F0495D31FDC9
:102820004052419302D0A9F7EACFB4E0A69597951C
:10283000879577956795BA95C9F7009761057105F2
:1028400008959B01AC010A2E06945795479537953C
:102850002795BA95C9F7620F731F841F951FA01D96
:062860000895F894FFCF7B
:10286600010058584E45525220436F64653A0000A5
:1028760000000000000000000000456D7074792023
:1028860053706163653D5B00000000000000204658
:1028960069726D77617265205665722000000000CE
:1028A6000000303030300020202020204F4F4F4F86
:1028B6004F4F4F4F4F4F2020202020000A096173B1
:1028C6006369693A20000A096465633A20000A09C7
:1028D6006865783A20005B434845434B2055494498
:1028E60028434830295D3A20005B434845434B2046
:1028F60055494428434831295D3A2000496E697498
:1029060069616C206572722E00506C7A2C205472AC
:1029160079696E672072657365742E0041542B5277
:1029260053540D0A0041542B5253540020202020AA
:10293600204F4F4F5F5F5F5F5F5F5F20202020204B
:102946000041542B474D520D0A0041542B474D521E
:102956000041542B43574D4F44453D310D0A00412C
:10296600542B43574D4F44450020202020204F4FE5
:102976004F4F5F5F5F5F5F5F202020202000415444
:102986002B43574D4F44453F0D0A0041542B4357A7
:102996004D4F44453F0041542B43574C41500D0A7F
:1029A6000041542B43574C41500020202020204FFB
:1029B6004F4F4F4F5F5F5F5F5F2020202020004119
:1029C600542B43574A41503D220041542B43574A0A
:1029D60041500020202020204F4F4F4F4F4F5F5F28
:1029E6005F5F20202020200041542B43494653524C
:1029F6000D0A0041542B4349465352002020202003
:102A0600204F4F4F4F4F4F4F5F5F5F2020202020BA
:102A16000041542B43495053544152540020202026
:102A260020204F4F4F4F4F4F4F4F5F5F20202020AA
:102A3600200020202020204F4F4F4F4F4F4F4F4F09
:102A46005F20202020200041542B43495053454EFF
:102A5600443D31310D0A0057656C636F6D652C007E
:102A6600416C7265616479205265636F676E697A3D
:102A7600656400536F7272792C0054686973206321
:102A8600617264206973006E6F7420726567697382
:102A960074657265642E0046726F6D20736572767A
:102AA6006572203A20003D3D3D3D3D3D3D3D3D3D6D
:102AB6003D3D3D3D3D3D3D3D3D3D0020205359536F
:102AC60054454D20424F4F54494E472E2E2E00203E
:102AD600202020205F5F5F5F5F5F5F5F5F5F20207A
:102AE6002020200039303030003139322E3136384E
:102AF6002E34332E32370031393939303330350000
:102B0600616263646500312E3930760020205061A1
:102B1600726B696E672053797374656D202020206F
:102B2600004265666F726520693263206C636420BB
:102B3600496E697469616C697A652E2E2E200D0ABC
:102B46000069326320434C434420436F6E6E6563D5
:102B560074204F6B0D0A0000004000140054000A58
:102B66005B6368616E6E656C2030000A5B6368614A
:102B76006E6E656C203100204E6F20726561646553
:102B86007220666F756E645D0A004572726F722CF4
:102B960020506C7A2043484B20524649440020443A
:102BA600657465637465642056657273696F6E5DDE
:102BB6003A204D494641524520524335323276320B
:102BC6000A0020202020204F5F5F5F5F5F5F5F5F0E
:102BD6005F20202020200020202020204F4F5F5FF4
:102BE6005F5F5F5F5F5F20202020200020446574C8
:102BF60065637465642056657273696F6E5D3A200D
:102C06004D494641524520524335323276310A000B
:102C16002530326400253032580041542B43495048
:0E2C260053544152543D22544350222C22005C
:00000001FF
